{
  "contractName": "Certificate",
  "abi": [
    {
      "anonymous": false,
      "inputs": [
        {
          "indexed": false,
          "internalType": "string",
          "name": "certificateID",
          "type": "string"
        },
        {
          "indexed": false,
          "internalType": "string",
          "name": "name",
          "type": "string"
        },
        {
          "indexed": false,
          "internalType": "string",
          "name": "course",
          "type": "string"
        },
        {
          "indexed": false,
          "internalType": "uint256",
          "name": "dateIssued",
          "type": "uint256"
        }
      ],
      "name": "CertificateIssued",
      "type": "event"
    },
    {
      "inputs": [
        {
          "internalType": "string",
          "name": "_name",
          "type": "string"
        },
        {
          "internalType": "string",
          "name": "_course",
          "type": "string"
        },
        {
          "internalType": "string",
          "name": "_certificateID",
          "type": "string"
        }
      ],
      "name": "issueCertificate",
      "outputs": [],
      "stateMutability": "nonpayable",
      "type": "function"
    },
    {
      "inputs": [
        {
          "internalType": "string",
          "name": "_certificateID",
          "type": "string"
        }
      ],
      "name": "getCertificate",
      "outputs": [
        {
          "internalType": "string",
          "name": "name",
          "type": "string"
        },
        {
          "internalType": "string",
          "name": "course",
          "type": "string"
        },
        {
          "internalType": "uint256",
          "name": "dateIssued",
          "type": "uint256"
        },
        {
          "internalType": "string",
          "name": "certificateID",
          "type": "string"
        }
      ],
      "stateMutability": "view",
      "type": "function",
      "constant": true
    },
    {
      "inputs": [
        {
          "internalType": "string",
          "name": "_name",
          "type": "string"
        }
      ],
      "name": "getCertificatesByName",
      "outputs": [
        {
          "components": [
            {
              "internalType": "string",
              "name": "name",
              "type": "string"
            },
            {
              "internalType": "string",
              "name": "course",
              "type": "string"
            },
            {
              "internalType": "uint256",
              "name": "dateIssued",
              "type": "uint256"
            },
            {
              "internalType": "string",
              "name": "certificateID",
              "type": "string"
            }
          ],
          "internalType": "struct Certificate.Cert[]",
          "name": "",
          "type": "tuple[]"
        }
      ],
      "stateMutability": "view",
      "type": "function",
      "constant": true
    }
  ],
  "bytecode": "0x608060405234801561001057600080fd5b50611380806100206000396000f3fe608060405234801561001057600080fd5b50600436106100415760003560e01c8063beec1caa14610046578063e51c44d114610062578063ed0f2e7514610092575b600080fd5b610060600480360381019061005b9190610cd0565b6100c5565b005b61007c60048036038101906100779190610c8f565b61027f565b6040516100899190610fb9565b60405180910390f35b6100ac60048036038101906100a79190610c8f565b610726565b6040516100bc9493929190611035565b60405180910390f35b600080826040516100d69190610fa2565b908152602001604051809103902060030180546100f290611231565b905014610134576040517f08c379a000000000000000000000000000000000000000000000000000000000815260040161012b9061108f565b60405180910390fd5b6040518060800160405280848152602001838152602001428152602001828152506000826040516101659190610fa2565b9081526020016040518091039020600082015181600001908051906020019061018f929190610b5c565b5060208201518160010190805190602001906101ac929190610b5c565b506040820151816002015560608201518160030190805190602001906101d3929190610b5c565b5090505060006101e284610986565b90506001816040516101f49190610fa2565b90815260200160405180910390208290806001815401808255809150506001900390600052602060002001600090919091909150908051906020019061023b929190610b5c565b507f96271eaf370790942baffd60b2c0f9dcadd6d8141dbca33de0c8fb12f0efd484828585426040516102719493929190610fdb565b60405180910390a150505050565b6060600061028c83610986565b905060006001826040516102a09190610fa2565b9081526020016040518091039020805480602002602001604051908101604052809291908181526020016000905b8282101561037a5783829060005260206000200180546102ed90611231565b80601f016020809104026020016040519081016040528092919081815260200182805461031990611231565b80156103665780601f1061033b57610100808354040283529160200191610366565b820191906000526020600020905b81548152906001019060200180831161034957829003601f168201915b5050505050815260200190600101906102ce565b50505050905060008151141561040e57600067ffffffffffffffff8111156103cb577f4e487b7100000000000000000000000000000000000000000000000000000000600052604160045260246000fd5b60405190808252806020026020018201604052801561040457816020015b6103f1610be2565b8152602001906001900390816103e95790505b5092505050610721565b6000815167ffffffffffffffff811115610451577f4e487b7100000000000000000000000000000000000000000000000000000000600052604160045260246000fd5b60405190808252806020026020018201604052801561048a57816020015b610477610be2565b81526020019060019003908161046f5790505b50905060005b82518110156107195760008382815181106104d4577f4e487b7100000000000000000000000000000000000000000000000000000000600052603260045260246000fd5b60200260200101516040516104e99190610fa2565b908152602001604051809103902060405180608001604052908160008201805461051290611231565b80601f016020809104026020016040519081016040528092919081815260200182805461053e90611231565b801561058b5780601f106105605761010080835404028352916020019161058b565b820191906000526020600020905b81548152906001019060200180831161056e57829003601f168201915b505050505081526020016001820180546105a490611231565b80601f01602080910402602001604051908101604052809291908181526020018280546105d090611231565b801561061d5780601f106105f25761010080835404028352916020019161061d565b820191906000526020600020905b81548152906001019060200180831161060057829003601f168201915b505050505081526020016002820154815260200160038201805461064090611231565b80601f016020809104026020016040519081016040528092919081815260200182805461066c90611231565b80156106b95780601f1061068e576101008083540402835291602001916106b9565b820191906000526020600020905b81548152906001019060200180831161069c57829003601f168201915b5050505050815250508282815181106106fb577f4e487b7100000000000000000000000000000000000000000000000000000000600052603260045260246000fd5b6020026020010181905250808061071190611263565b915050610490565b508093505050505b919050565b606080600060606000808660405161073e9190610fa2565b908152602001604051809103902060405180608001604052908160008201805461076790611231565b80601f016020809104026020016040519081016040528092919081815260200182805461079390611231565b80156107e05780601f106107b5576101008083540402835291602001916107e0565b820191906000526020600020905b8154815290600101906020018083116107c357829003601f168201915b505050505081526020016001820180546107f990611231565b80601f016020809104026020016040519081016040528092919081815260200182805461082590611231565b80156108725780601f1061084757610100808354040283529160200191610872565b820191906000526020600020905b81548152906001019060200180831161085557829003601f168201915b505050505081526020016002820154815260200160038201805461089590611231565b80601f01602080910402602001604051908101604052809291908181526020018280546108c190611231565b801561090e5780601f106108e35761010080835404028352916020019161090e565b820191906000526020600020905b8154815290600101906020018083116108f157829003601f168201915b505050505081525050905060008160600151511415610962576040517f08c379a0000000000000000000000000000000000000000000000000000000008152600401610959906110af565b60405180910390fd5b80600001518160200151826040015183606001519450945094509450509193509193565b6060600082905060005b8151811015610b5257604160f81b8282815181106109d7577f4e487b7100000000000000000000000000000000000000000000000000000000600052603260045260246000fd5b602001015160f81c60f81b7effffffffffffffffffffffffffffffffffffffffffffffffffffffffffffff191610158015610a7b5750605a60f81b828281518110610a4b577f4e487b7100000000000000000000000000000000000000000000000000000000600052603260045260246000fd5b602001015160f81c60f81b7effffffffffffffffffffffffffffffffffffffffffffffffffffffffffffff191611155b15610b3f576020828281518110610abb577f4e487b7100000000000000000000000000000000000000000000000000000000600052603260045260246000fd5b602001015160f81c60f81b60f81c610ad391906111a1565b60f81b828281518110610b0f577f4e487b7100000000000000000000000000000000000000000000000000000000600052603260045260246000fd5b60200101907effffffffffffffffffffffffffffffffffffffffffffffffffffffffffffff1916908160001a9053505b8080610b4a90611263565b915050610990565b5080915050919050565b828054610b6890611231565b90600052602060002090601f016020900481019282610b8a5760008555610bd1565b82601f10610ba357805160ff1916838001178555610bd1565b82800160010185558215610bd1579182015b82811115610bd0578251825591602001919060010190610bb5565b5b509050610bde9190610c0a565b5090565b6040518060800160405280606081526020016060815260200160008152602001606081525090565b5b80821115610c23576000816000905550600101610c0b565b5090565b6000610c3a610c3584611100565b6110cf565b905082815260208101848484011115610c5257600080fd5b610c5d8482856111ef565b509392505050565b600082601f830112610c7657600080fd5b8135610c86848260208601610c27565b91505092915050565b600060208284031215610ca157600080fd5b600082013567ffffffffffffffff811115610cbb57600080fd5b610cc784828501610c65565b91505092915050565b600080600060608486031215610ce557600080fd5b600084013567ffffffffffffffff811115610cff57600080fd5b610d0b86828701610c65565b935050602084013567ffffffffffffffff811115610d2857600080fd5b610d3486828701610c65565b925050604084013567ffffffffffffffff811115610d5157600080fd5b610d5d86828701610c65565b9150509250925092565b6000610d738383610f13565b905092915050565b6000610d8682611140565b610d908185611163565b935083602082028501610da285611130565b8060005b85811015610dde5784840389528151610dbf8582610d67565b9450610dca83611156565b925060208a01995050600181019050610da6565b50829750879550505050505092915050565b6000610dfb8261114b565b610e058185611174565b9350610e158185602086016111fe565b610e1e81611339565b840191505092915050565b6000610e348261114b565b610e3e8185611185565b9350610e4e8185602086016111fe565b610e5781611339565b840191505092915050565b6000610e6d8261114b565b610e778185611196565b9350610e878185602086016111fe565b80840191505092915050565b6000610ea0601583611185565b91507f43657274696669636174652049442065786973747300000000000000000000006000830152602082019050919050565b6000610ee0601a83611185565b91507f436572746966696361746520646f6573206e6f742065786973740000000000006000830152602082019050919050565b60006080830160008301518482036000860152610f308282610df0565b91505060208301518482036020860152610f4a8282610df0565b9150506040830151610f5f6040860182610f84565b5060608301518482036060860152610f778282610df0565b9150508091505092915050565b610f8d816111d8565b82525050565b610f9c816111d8565b82525050565b6000610fae8284610e62565b915081905092915050565b60006020820190508181036000830152610fd38184610d7b565b905092915050565b60006080820190508181036000830152610ff58187610e29565b905081810360208301526110098186610e29565b9050818103604083015261101d8185610e29565b905061102c6060830184610f93565b95945050505050565b6000608082019050818103600083015261104f8187610e29565b905081810360208301526110638186610e29565b90506110726040830185610f93565b81810360608301526110848184610e29565b905095945050505050565b600060208201905081810360008301526110a881610e93565b9050919050565b600060208201905081810360008301526110c881610ed3565b9050919050565b6000604051905081810181811067ffffffffffffffff821117156110f6576110f561130a565b5b8060405250919050565b600067ffffffffffffffff82111561111b5761111a61130a565b5b601f19601f8301169050602081019050919050565b6000819050602082019050919050565b600081519050919050565b600081519050919050565b6000602082019050919050565b600082825260208201905092915050565b600082825260208201905092915050565b600082825260208201905092915050565b600081905092915050565b60006111ac826111e2565b91506111b7836111e2565b92508260ff038211156111cd576111cc6112ac565b5b828201905092915050565b6000819050919050565b600060ff82169050919050565b82818337600083830152505050565b60005b8381101561121c578082015181840152602081019050611201565b8381111561122b576000848401525b50505050565b6000600282049050600182168061124957607f821691505b6020821081141561125d5761125c6112db565b5b50919050565b600061126e826111d8565b91507fffffffffffffffffffffffffffffffffffffffffffffffffffffffffffffffff8214156112a1576112a06112ac565b5b600182019050919050565b7f4e487b7100000000000000000000000000000000000000000000000000000000600052601160045260246000fd5b7f4e487b7100000000000000000000000000000000000000000000000000000000600052602260045260246000fd5b7f4e487b7100000000000000000000000000000000000000000000000000000000600052604160045260246000fd5b6000601f19601f830116905091905056fea2646970667358221220006960ff4df9ac2d1520f05c9966fb6854df2123402b375b55d3a87150e4bb7064736f6c63430008000033",
  "immutableReferences": {},
  "source": "// SPDX-License-Identifier: MIT\npragma solidity ^0.8.0;\n\ncontract Certificate {\n    struct Cert {\n        string name;\n        string course;\n        uint256 dateIssued;\n        string certificateID;\n    }\n\n    mapping(string => Cert) private certificates; // certificateID => Cert\n    mapping(string => string[]) private certificatesByName; // normalized name => certificateIDs\n\n    event CertificateIssued(\n        string certificateID,\n        string name,\n        string course,\n        uint256 dateIssued\n    );\n\n    function normalize(string memory str) internal pure returns (string memory) {\n        bytes memory bStr = bytes(str);\n        for (uint i = 0; i < bStr.length; i++) {\n            if (bStr[i] >= 0x41 && bStr[i] <= 0x5A) {\n                bStr[i] = bytes1(uint8(bStr[i]) + 32); // A-Z -> a-z\n            }\n        }\n        return string(bStr);\n    }\n\n    function issueCertificate(\n        string memory _name,\n        string memory _course,\n        string memory _certificateID\n    ) public {\n        require(bytes(certificates[_certificateID].certificateID).length == 0, \"Certificate ID exists\");\n\n        certificates[_certificateID] = Cert({\n            name: _name,\n            course: _course,\n            dateIssued: block.timestamp,\n            certificateID: _certificateID\n        });\n\n        string memory normalizedName = normalize(_name);\n        certificatesByName[normalizedName].push(_certificateID);\n\n        emit CertificateIssued(_certificateID, _name, _course, block.timestamp);\n    }\n\n    function getCertificate(string memory _certificateID)\n        public\n        view\n        returns (string memory name, string memory course, uint256 dateIssued, string memory certificateID)\n    {\n        Cert memory cert = certificates[_certificateID];\n        require(bytes(cert.certificateID).length != 0, \"Certificate does not exist\");\n        return (cert.name, cert.course, cert.dateIssued, cert.certificateID);\n    }\n\nfunction getCertificatesByName(string memory _name)\n    public\n    view\n    returns (Cert[] memory)\n{\n    string memory normalizedName = normalize(_name);\n    string[] memory ids = certificatesByName[normalizedName];\n\n    // Return empty array if no certificates found\n    if (ids.length == 0) {\n        return new Cert[](0);\n    }\n\n    Cert[] memory results = new Cert[](ids.length);\n    for (uint i = 0; i < ids.length; i++) {\n        results[i] = certificates[ids[i]];\n    }\n    return results;\n}\n}",
  "sourcePath": "D:\\Test Block Projects\\cert_gen\\contracts\\Certificate.sol",
  "compiler": {
    "name": "solc",
    "version": "0.8.0+commit.c7dfd78e.Emscripten.clang"
  },
  "schemaVersion": "3.4.16",
  "updatedAt": "2025-10-14T11:29:23.012Z",
  "networkType": "ethereum",
  "devdoc": {
    "kind": "dev",
    "methods": {},
    "version": 1
  },
  "userdoc": {
    "kind": "user",
    "methods": {},
    "version": 1
  }
}